:020000020000FC
:0200000009C035
:1000100040C032C00FE50DBF02E00EBF0FEF0ABBBC
:1000200004BB00241124222408E7302E07E7402EC9
:1000300008E5502E0CE5602E0DE6702E0DE6802EA4
:100040000DE6902EAA24BB24CC24FF27222701E012
:1000500003BF05E00EBD0EEF0DBD08E10CBD05E0D0
:1000600009BF789401D0FFCF11E0E22F00811095F5
:1000700015BB10950BBB0895FBBB110F103139F068
:10008000E3950081109515BB10950BBB1895ECDF1F
:10009000FDCF0EEF0DBD08E10CBD23952A3009F40C
:0400A0002227189566
:00000001FF
