:020000020000FC
:0200000009C035
:100010003EC030C00FE50DBF02E00EBF0FEF0ABBC0
:1000200004BB00241124222400E4302E06E7402ED5
:100030000FE3502E08E3602E07E7702E00E4802EB9
:100040009924AA24BB24FF27222703E003BF05E04D
:100050000EBD0EEF0DBD08E10CBD05E009BF7894A3
:1000600001D0FFCF11E0E22F0081109515BB109554
:100070000BBB0895FBBB110F103139F0E3950081E4
:10008000109515BB10950BBB1895ECDFFDCF0EEF4F
:100090000DBD08E10CBD2395293009F422271895E0
:00000001FF
